:100000000EC01DC056C01BC01AC027C018C017C0E4
:1000100016C015C014C013C012C011C010C01124E6
:100020001FBECFE5D1E0DEBFCDBF20E0A0E6B0E04F
:1000300001C01D92A836B207E1F763D0B7C0E0CF88
:100040008BB780628BBFAA9A089512BE89B782606F
:1000500089BF88B7826088BF089512BE83B78D7F3D
:1000600083BF83B78E7F83BF8091620090916300CE
:100070008D30910579F08F30910539F00B9771F43F
:10008000C49AC398C198C09809C0C49AC39AC19829
:10009000C09A04C0C498C39AC19AC09810926300D1
:1000A0001092620081E090E0909361008093600084
:1000B0001895B29913C080916000909161000097EB
:1000C00041F412BE83B7826083BF83B7816083BF70
:1000D00017C0109261001092600012C082B790E0C9
:1000E000909367008093660083B78D7F83BF83B74B
:1000F0008E7F83BF81E090E09093650080936400E1
:100100001895B89AB99ABA98BB9ABC9A99DF9DDFAC
:10011000C49AC398C198C0987894809164009091D3
:10012000650081309105E9F7109265001092640036
:1001300080916600909167000197C79768F480915D
:100140006200909163000196909363008093620037
:1001500082E08A95F1F700C0809166009091670077
:10016000C897C79768F480916200909163000496E5
:10017000909363008093620082E08A95F1F700C05B
:1001800080916600909167008F569109C79728F675
:100190008091620090916300069690936300809333
:1001A000620082E08A95F1F700C0B7CFF894FFCFE4
:00000001FF
